{
    "contractName": "SafeDecimalMath",
    "abi": [
        {
            "constant": true,
            "inputs": [],
            "name": "decimals",
            "outputs": [
                {
                    "name": "",
                    "type": "uint8"
                }
            ],
            "payable": false,
            "stateMutability": "view",
            "type": "function"
        },
        {
            "constant": true,
            "inputs": [],
            "name": "PRECISE_UNIT",
            "outputs": [
                {
                    "name": "",
                    "type": "uint256"
                }
            ],
            "payable": false,
            "stateMutability": "view",
            "type": "function"
        },
        {
            "constant": true,
            "inputs": [],
            "name": "unit",
            "outputs": [
                {
                    "name": "",
                    "type": "uint256"
                }
            ],
            "payable": false,
            "stateMutability": "pure",
            "type": "function"
        },
        {
            "constant": true,
            "inputs": [],
            "name": "UNIT",
            "outputs": [
                {
                    "name": "",
                    "type": "uint256"
                }
            ],
            "payable": false,
            "stateMutability": "view",
            "type": "function"
        },
        {
            "constant": true,
            "inputs": [],
            "name": "preciseUnit",
            "outputs": [
                {
                    "name": "",
                    "type": "uint256"
                }
            ],
            "payable": false,
            "stateMutability": "pure",
            "type": "function"
        },
        {
            "constant": true,
            "inputs": [],
            "name": "highPrecisionDecimals",
            "outputs": [
                {
                    "name": "",
                    "type": "uint8"
                }
            ],
            "payable": false,
            "stateMutability": "view",
            "type": "function"
        }
    ],
    "bytecode": "610159610030600b82828239805160001a6073146000811461002057610022565bfe5b5030600052607381538281f300730000000000000000000000000000000000000000301460806040526004361061008e5763ffffffff7c0100000000000000000000000000000000000000000000000000000000600035041663313ce5678114610093578063864029e7146100b1578063907af6c0146100cb5780639d8e2177146100d3578063d5e5e6e6146100db578063def4419d146100e3575b600080fd5b61009b6100eb565b6040805160ff9092168252519081900360200190f35b6100b96100f0565b60408051918252519081900360200190f35b6100b9610100565b6100b961010c565b6100b9610118565b61009b610128565b601281565b6b033b2e3c9fd0803ce800000081565b670de0b6b3a764000090565b670de0b6b3a764000081565b6b033b2e3c9fd0803ce800000090565b601b815600a165627a7a72305820edd0c937c5bc8cedfc269aa8be72eb108cde52215d20cc6a8ff8c2ad14dc596d0029",
    "sourcePath": "/Users/jackson/Workspace/synthetixV2/contracts/SafeDecimalMath.sol",
    "compiler": {
        "name": "solc",
        "version": "0.4.25+commit.59dbf8f1"
    },
    "functionHashes": {
        "PRECISE_UNIT()": "864029e7",
        "UNIT()": "9d8e2177",
        "decimals()": "313ce567",
        "highPrecisionDecimals()": "def4419d",
        "preciseUnit()": "d5e5e6e6",
        "unit()": "907af6c0"
    },
    "gasEstimates": {
        "creation": {
            "codeDepositCost": "69000",
            "executionCost": "167",
            "totalCost": "69167"
        },
        "external": {
            "PRECISE_UNIT()": "190",
            "UNIT()": "234",
            "decimals()": "177",
            "highPrecisionDecimals()": "287",
            "preciseUnit()": "256",
            "unit()": "212"
        },
        "internal": {
            "_divideDecimalRound(uint256,uint256,uint256)": "infinite",
            "_multiplyDecimalRound(uint256,uint256,uint256)": "infinite",
            "decimalToPreciseDecimal(uint256)": "infinite",
            "divideDecimal(uint256,uint256)": "infinite",
            "divideDecimalRound(uint256,uint256)": "infinite",
            "divideDecimalRoundPrecise(uint256,uint256)": "infinite",
            "multiplyDecimal(uint256,uint256)": "infinite",
            "multiplyDecimalRound(uint256,uint256)": "infinite",
            "multiplyDecimalRoundPrecise(uint256,uint256)": "infinite",
            "preciseDecimalToDecimal(uint256)": "infinite"
        }
    }
}